:100000000C942A000C9434000C9434000C943400AA
:100010000C9434000C9434000C9434000C94340090
:100020000C9434000C9434000C9434000C94340080
:100030000C9434000C9434000C9434000C94340070
:100040000C9434000C9434000C9434000C94340060
:100050000C94340011241FBECFE5D8E0DEBFCDBF25
:100060000E943B000C9452000C94000083B78966F8
:1000700083BFBB9A08950E94360091E080E08CBF58
:10008000911104C0815091E031F004C08F5F91E084
:100090008F3709F490E0E3ECF9E03197F1F700C015
:0800A0000000EDCFF894FFCF42
:00000001FF
