:100000000C942A000C9434000C9434000C943400AA
:100010000C9434000C9434000C9434000C94340090
:100020000C9434000C9434000C9434000C94340080
:100030000C9434000C9434000C9434000C94340070
:100040000C9434000C9434000C9434000C94340060
:100050000C94340011241FBECFE5D4E0DEBFCDBF29
:100060000E9440000C947F000C9400008FB5816AC0
:100070008FBD8EB589608EBD81B3806381BB0895CD
:100080000E943600E0E0F0E050E040E0AFE0842F76
:100090006A2F0E9473009FEF899F900111243BBD3E
:1000A0002ABD852F0E9473009FEF899F9001112424
:1000B00039BD28BDF11105C04F5FF1E04F3029F483
:1000C00005C0F13019F4415009F4F0E0E11105C028
:1000D0005F5FE1E05F3029F4DACFE130C1F65150E3
:1000E000B1F6E0E0D4CF991B79E004C0991F9617D0
:1000F00008F0961B881F7A95C9F780950895F894A3
:02010000FFCF2F
:00000001FF
