:100000000C942A000C9434000C9434000C943400AA
:100010000C9434000C9434000C9434000C94340090
:100020000C9434000C9434000C9434000C94340080
:100030000C9434000C9434000C9434000C94340070
:100040000C9434000C9434000C9434000C94340060
:100050000C94340011241FBECFE5D8E0DEBFCDBF25
:100060000E9440000C944D000C9400008FB5816AF2
:100070008FBD8EB589608EBD81B3806381BB0895CD
:100080000E9436001BBC1ABC19BC18BC83EC99E05A
:0E0090000197F1F700C00000F5CFF894FFCF04
:00000001FF
